:100000000C9464000C948C000C948C000C948C0068
:100010000C948C000C948C000C948C000C948C0030
:100020000C948C000C948C000C948C000C948C0020
:100030000C948C000C948C000C948C000C948C0010
:100040000C94E2070C948C000C9436060C94680611
:100050000C948C000C948C000C948C000C948C00F0
:100060000C948C000C948C0000000008000201002D
:100070000003040700000000000000000102040863
:100080001020408001020408102001020408102002
:10009000040404040404040402020202020203032E
:1000A00003030303000000002300260029000000D2
:1000B0000000250028002B0000000000240027007D
:1000C0002A00D7049806ED0411241FBECFEFD8E014
:1000D000DEBFCDBF11E0A0E0B1E0E0E4F8E102C096
:1000E00005900D92A638B107D9F722E0A6E8B1E055
:1000F00001C01D92A53FB207E1F710E0C6ECD0E0C9
:1001000004C02297FE010E94C009C23CD107C9F772
:100110000E94DC060C94130C0C9400000F93CF93F8
:10012000DF93EC01802F69834B832A83088361E08E
:100130000E94DB0861E089810E94DB0861E08A811E
:100140000E94DB0860E08B81DF91CF910F910C94CE
:10015000DB08EF92FF920F931F93CF93DF93EC0195
:10016000E62E61E089810E94140900E010E0F12C84
:1001700060E089810E941409C701002E02C0959594
:1001800087950A94E2F780FF02C061E001C060E059
:100190008A810E94140961E089810E9414090F5F1D
:1001A0001F4F0830110521F7DF91CF911F910F915B
:1001B000FF90EF900895AF92BF92CF92DF92EF92AF
:1001C000FF920F931F93CF93DF93EC016B01042FEA
:1001D0000F5F60E088810E94140962E070E080E0B7
:1001E00090E00E944F0861E0CE010E94A90060E00B
:1001F000CE010E94A90060E0CE010E94A9006FEF2D
:10020000CE010E94A900602FCE010E94A900602F9C
:100210006195CE010E94A90064EDCE010E94A90063
:10022000A12C83EDB82E10E001501109EA2CF12C1D
:10023000E016F10664F4EC0CFD1CF7016081CE01C0
:100240000E94A900F7018081B80EA394EFCF6B2D17
:100250006095CE010E94A90060E0CE010E94A90035
:1002600061E08881DF91CF911F910F91FF90EF9016
:10027000DF90CF90BF90AF900C941409DF92EF9273
:10028000FF920F931F93CF93DF93EC0161E089817D
:100290000E94140900E010E0D12CEE24E394F12C2C
:1002A0008B810E944A09892B39F09701002E01C0E9
:1002B000220F0A94EAF7D22A60E089810E94140989
:1002C00061E089810E9414090F5F1F4F08301105FA
:1002D00039F78D2DDF91CF911F910F91FF90EF9006
:1002E000DF9008951F93CF93DF93EC0160E0888146
:1002F0000E94140962E070E080E090E00E944F08E4
:1003000062E0CE010E94A900CE010E943E01182F9A
:1003100061E088810E941409812FDF91CF911F91A4
:100320000895CF92DF92EF92FF920F931F93CF9396
:10033000DF938C01F62ED72EE42E60E0FC01808145
:100340000E94140962E070E080E090E00E944F0893
:1003500063E0C8010E94A900CF2CCF2DDD2D8C2F8A
:100360008C198E1558F461E070E080E090E00E94F6
:100370004F08C8010E943E018993F1CF61E0F80166
:100380008081DF91CF911F910F91FF90EF90DF90CF
:10039000CF900C941409CF93DF9300D000D000D0FD
:1003A000CDB7DEB746E0BE016F5F7F4F0E9491017F
:1003B00046E050E066E071E0CE0101960E94CE0B6F
:1003C00021E0892B09F020E0822F26960FB6F894C1
:1003D000DEBF0FBECDBFDF91CF910895EF92FF92A8
:1003E0000F931F93CF93DF93EC0189010E94DB00F1
:1003F000E12CF12CCE010E947201813081F00115B7
:10040000110531F08AE0E80EF11C0E151F0518F1F8
:100410006AE070E080E090E00E944F08EBCFCE01F0
:100420000E94CB018823B9F0E12CF12CCE010E946F
:100430007201813089F00115110531F08AE0E80E72
:10044000F11C0E151F0538F06AE070E080E090E0C6
:100450000E944F08EBCF80E0DF91CF911F910F9169
:10046000FF90EF900895CF93DF93EC0160E08881D7
:100470000E94140968EE73E080E090E00E944F084B
:1004800082E08093860128EE33E041E066E871E087
:10049000CE01DF91CF910C94EE01CF93DF93EC016D
:1004A00094E19093860181E0809387019093880185
:1004B0008093890128EE33E044E066E871E0CE01E4
:1004C0000E94EE01882359F048E066E871E0CE0111
:1004D0000E94910181E090918B01953109F080E0BB
:1004E000DF91CF910895CF93DF93EC018AE480935D
:1004F000860181E0809387016093880128EE33E0D4
:1005000043E066E871E0CE010E94EE01811105C072
:1005100030E020E080E090E020C044E166E871E057
:10052000CE010E94910180918D01813089F7209147
:10053000920183E991E0FC0140E050E0BA013E2FD6
:10054000381B321738F4762F652F542F44273191FA
:10055000432BF5CF342F252FCB01632F722FDF9143
:10056000CF91089541155105D9F0FC0120813181C9
:1005700028303105A9F0A5E0A29FF001A39FF00D5E
:100580001124E80FF91F538342837583648341E08C
:1005900046832F5F3F4FFC013183208381E0089524
:1005A00080E008958F929F92AF92BF92CF92DF9298
:1005B000EF92FF920F931F93CF93DF938C017B01F8
:1005C0004A01EC01A12CB12CC12CD12CF801808165
:1005D0009181A816B906BCF4EA81FB81309771F0CD
:1005E0008C819D818E159F0549F48E81882331F081
:1005F0008FEFC81AD80AB401C7010995AFEFAA1A3C
:10060000BA0A2596E3CFC601009779F402A4F3A5B0
:10061000E02D309751F0D8019C962C91222329F09F
:10062000B401C701099581E090E0DF91CF911F915E
:100630000F91FF90EF90DF90CF90BF90AF909F9081
:100640008F900895FC0111A210A213A212A215A26C
:1006500014A266A388E090E028EC30E03183208388
:1006600013821282019734960097C1F708951F9361
:10067000CF93DF93EC0111E06130710509F010E0D8
:10068000612FCE010E942203612FCE0187960E9426
:100690002203C25BDF4F198218821BA61AA6DF91C4
:1006A000CF911F910895CF93FC0186A1882311F06B
:1006B000CFB7F89424A135A128303105E9F082A103
:1006C00093A1DC01AA0FBB1FAA0FBB1FAE0FBF1F58
:1006D00011967C936E9313965C934E9312970196AA
:1006E00068E070E00E94740993A382A32F5F3F4FDC
:1006F00035A324A381E001C080E096A19111CFBF72
:10070000CF910895FC0184A195A1892B09F43EC0E5
:1007100086A1882309F0F894A0A1B1A1AA0FBB1F5C
:10072000AA0FBB1FAE0FBF1F8D919C91DB018D9354
:100730009C93A0A1B1A1AA0FBB1FAA0FBB1FAE0F14
:10074000BF1F12968D919C911397DA018D939C9304
:1007500080A191A1DC01AA0FBB1FAA0FBB1FAE0F86
:10076000BF1F28EC30E02D933C93019668E070E0C9
:100770000E94740991A380A384A195A1019795A3D8
:1007800084A386A1882321F0789402C080E0089594
:1007900081E008950F931F93CF93DF9300D000D093
:1007A000CDB7DEB78C01AE014F5F5F4FBE016D5F0D
:1007B0007F4F0E948203882359F049815A816B81BF
:1007C0007C81C801825B9F4F0E94D2020097C1F4D6
:1007D000AE014F5F5F4FBE016D5F7F4FC8018796CF
:1007E0000E948203811103C080E090E009C049812A
:1007F0005A816B817C81C801825B9F4F0E94D2022B
:100800000F900F900F900F90DF91CF911F910F914C
:100810000895CF93DF93C0E1D1E061E088810E9429
:10082000140962E171E08BE492E00E942D0760ED13
:1008300077E080E090E00E944F0860E271E08BE496
:1008400092E00E942D0760E08881DF91CF910C94A7
:10085000140960E371E081E492E00E94C3078823F9
:1008600059F168E371E08BE492E00E942D0761E0AA
:1008700080910E010E94140964EF71E080E090E025
:100880000E944F0860E080910E010E94140964EFFD
:1008900071E080E090E00E944F0861E080910E01DD
:1008A0000E94140964EF71E080E090E00E944F081C
:1008B00060E080910E012AC062E471E08BE492E076
:1008C0000E942D0761E0809110010E94140964EFDD
:1008D00071E080E090E00E944F0860E0809110019C
:1008E0000E94140964EF71E080E090E00E944F08DC
:1008F00061E0809110010E94140964EF71E080E0D2
:1009000090E00E944F0860E0809110010E9414095D
:1009100064EF71E080E090E00C944F0841E050E01B
:1009200063EE70E08DEE91E00C94530326E040E816
:1009300055E260E070E08BE492E00E94D40587E429
:1009400092E00E94330287E492E00E944D026BE441
:1009500071E08BE492E00E942D0760E080910C0131
:100960000E94DB0861E0809110010E94DB0849E0F1
:1009700054E063EE70E084E192E00E94B20249E24A
:1009800054E064EE70E084E192E00C94B20286ECF4
:1009900091E00E94CA0360E087E492E00E94730243
:1009A000672B682B692B11F00C948E0408950F931C
:1009B0000AE02BE04CE06DE087E492E00E948E00BC
:1009C00068E771E081E492E00E94AD0761E070E0C9
:1009D00086EC91E00F910C94370381E492E00C9443
:1009E0003F07FC01818D228D90E0805C9F4F821B30
:1009F00091098F7399270895FC01918D828D981725
:100A000031F0828DE80FF11D858D90E008958FEF14
:100A10009FEF0895FC01918D828D981761F0828D72
:100A2000DF01A80FB11D5D968C91928D9F5F9F7322
:100A3000928F90E008958FEF9FEF08958EE896E0F3
:100A4000892B49F080E090E0892B29F00E948E06E6
:100A500081110C9400000895FC01848DDF01A80F22
:100A6000B11DA35ABF4F2C91848D90E001968F73D6
:100A70009927848FA689B7892C93A089B1898C91F5
:100A800080648C93938D848D981306C00288F389BB
:100A9000E02D80818F7D80830895CF93DF93EC01DB
:100AA000888D8823C9F0EA89FB89808185FD05C08E
:100AB000A889B9898C9186FD0FC00FB607FCF5CFC8
:100AC000808185FFF2CFA889B9898C9185FFEDCF10
:100AD000CE010E942C05E7CFDF91CF910895CF92F0
:100AE000DF92FF920F931F93CF93DF931F92CDB7A7
:100AF000DEB76C0181E0D60158968C9358975B96CF
:100B00009C915B975C968C915C97981307C050966C
:100B1000ED91FC915197808185FD2EC0F601038DEA
:100B200010E00F5F1F4F0F731127F02EF601848D19
:100B3000F81211C00FB607FCF9CFD6015096ED910F
:100B4000FC915197808185FFF1CFC60169830E9496
:100B50002C056981EBCF838DE80FF11DE35AFF4F20
:100B60006083D6015B960C935B975296ED91FC9156
:100B70005397808180620CC0D6015696ED91FC910E
:100B8000579760835096ED91FC91519780818064D6
:100B9000808381E090E00F90DF91CF911F910F91C2
:100BA000FF90DF90CF900895BF92CF92DF92EF92A7
:100BB000FF92CF93DF93EC016A017B01B22EE889AB
:100BC000F98982E08083411581EE5807610571053E
:100BD000A1F060E079E08DE390E0A70196010E942A
:100BE0008809215031094109510956954795379592
:100BF0002795211580E1380798F0E889F989108256
:100C000060E874E88EE190E0A70196010E948809EF
:100C10002150310941095109569547953795279536
:100C2000EC85FD853083EE85FF852083188EEC8969
:100C3000FD89B082EA89FB89808180618083EA89AD
:100C4000FB89808188608083EA89FB898081806854
:100C50008083EA89FB8980818F7D8083DF91CF91BA
:100C6000FF90EF90DF90CF90BF9008951F920F926A
:100C70000FB60F9211242F938F939F93EF93FF93AF
:100C8000E0915B02F0915C028081E0916102F09161
:100C9000620282FD12C09081809164028F5F8F7327
:100CA00020916502821751F0E0916402F0E0E55B6B
:100CB000FD4F958F8093640201C08081FF91EF9179
:100CC0009F918F912F910F900FBE0F901F901895AD
:100CD0001F920F920FB60F9211242F933F934F93B1
:100CE0005F936F937F938F939F93AF93BF93EF9394
:100CF000FF938BE492E00E942C05FF91EF91BF914E
:100D0000AF919F918F917F916F915F914F913F91A3
:100D10002F910F900FBE0F901F9018958BE492E0CB
:100D20000E94F10421E0892B09F420E0822F08952C
:100D300010924E0210924D0288EE93E0A0E0B0E0D7
:100D400080934F0290935002A0935102B0935202AD
:100D50008AE691E090934C0280934B0285EC90E000
:100D6000909358028093570284EC90E090935A023B
:100D70008093590280EC90E090935C0280935B0238
:100D800081EC90E090935E0280935D0282EC90E0B3
:100D90009093600280935F0286EC90E090936202F1
:100DA00080936102109264021092650210926602B2
:100DB00010926702089508950E9477080E94DB064A
:100DC0000E949604CEE1D5E00E94C7042097E1F38B
:100DD0000E941E05F9CFCF92DF92EF92FF920F9300
:100DE0001F93CF93DF937C016A01EB0100E010E0D9
:100DF0000C151D0571F06991D701ED91FC910190E1
:100E0000F081E02DC7010995892B19F00F5F1F4F65
:100E1000EFCFC801DF91CF911F910F91FF90EF901D
:100E2000DF90CF9008956115710581F0DB010D9081
:100E30000020E9F7AD0141505109461B570BDC0179
:100E4000ED91FC910280F381E02D099480E090E027
:100E5000089566E771E00C9413070F931F93CF93E7
:100E6000DF93EC010E9413078C01CE010E94290739
:100E7000800F911FDF91CF911F910F910895FC0179
:100E8000808191810C945C0ACF93DF93EC0188817F
:100E90009981009711F00E945C0A198218821D82C4
:100EA0001C821B821A82DF91CF9108950F931F93AA
:100EB000CF93DF93EC018B016F5F7F4F8881998126
:100EC0000E94EB0A009731F0998388831B830A8381
:100ED00081E001C080E0DF91CF911F910F910895D3
:100EE000CF93DF93EC0188819981892B29F08A8146
:100EF0009B818617970760F4CE010E9456078823CE
:100F000041F08C819D81892B19F4E881F98110824F
:100F100081E0DF91CF910895EF92FF920F931F939D
:100F2000CF93DF93EC017B018A01BA010E94700725
:100F3000811104C0CE010E94440707C01D830C83A9
:100F4000B701888199810E94C70BCE01DF91CF91B3
:100F50001F910F91FF90EF900895FC011182108274
:100F600013821282158214826115710559F0FB01FA
:100F700001900020E9F7AF0141505109461B570B82
:100F80000C948C070895FC0124813581232B31F4C6
:100F900021E061157105A1F0FB0108C0FC01808111
:100FA00091816115710531F421E0FC018081882374
:100FB00039F005C00E94BE0B21E0892B09F020E02A
:100FC000822F08951F920F920FB60F9211242F9324
:100FD0003F938F939F93AF93BF938091E90290913A
:100FE000EA02A091EB02B091EC023091E80223E01A
:100FF000230F2D3720F40196A11DB11D05C026E851
:10100000230F0296A11DB11D2093E8028093E902EF
:101010009093EA02A093EB02B093EC028091ED0270
:101020009091EE02A091EF02B091F0020196A11D05
:10103000B11D8093ED029093EE02A093EF02B09366
:10104000F002BF91AF919F918F913F912F910F909F
:101050000FBE0F901F9018953FB7F8948091ED0246
:101060009091EE02A091EF02B091F00226B5A89BFC
:1010700005C02F3F19F00196A11DB11D3FBF662786
:10108000782F892F9A2F620F711D811D911D42E0CB
:10109000660F771F881F991F4A95D1F70895CF9241
:1010A000DF92EF92FF92CF93DF936B017C010E945E
:1010B0002C08EB01C114D104E104F10489F00E9471
:1010C00073090E942C086C1B7D0B683E734090F3E3
:1010D00081E0C81AD108E108F108C851DC4FEACF15
:1010E000DF91CF91FF90EF90DF90CF9008957894AB
:1010F00084B5826084BD84B5816084BD85B582601D
:1011000085BD85B5816085BDEEE6F0E080818160BA
:101110008083E1E8F0E010828081826080838081BA
:1011200081608083E0E8F0E0808181608083E1EB92
:10113000F0E0808184608083E0EBF0E0808181607A
:101140008083EAE7F0E08081846080838081826030
:101150008083808181608083808180688083109219
:10116000C1000895833081F028F4813099F08230F5
:10117000A1F008958730A9F08830B9F08430D1F417
:10118000809180008F7D03C0809180008F77809355
:101190008000089584B58F7702C084B58F7D84BDAB
:1011A00008958091B0008F7703C08091B0008F7D4B
:1011B0008093B0000895CF93DF9390E0FC01E45852
:1011C000FF4F2491FC01E057FF4F8491882349F1A0
:1011D00090E0880F991FFC01E854FF4FA591B4914E
:1011E00082559F4FFC01C591D4919FB7611108C0F2
:1011F000F8948C91209582238C93888182230AC055
:10120000623051F4F8948C91322F309583238C9373
:101210008881822B888304C0F8948C91822B8C93D4
:101220009FBFDF91CF9108950F931F93CF93DF93CB
:101230001F92CDB7DEB7282F30E0F901E859FF4FF4
:101240008491F901E458FF4F1491F901E057FF4FE1
:1012500004910023C9F0882321F069830E94B20819
:101260006981E02FF0E0EE0FFF1FE255FF4FA591DF
:10127000B4919FB7F8948C91611103C010958123AC
:1012800001C0812B8C939FBF0F90DF91CF911F9155
:101290000F910895CF93DF93282F30E0F901E8599B
:1012A000FF4F8491F901E458FF4FD491F901E057C1
:1012B000FF4FC491CC2391F081110E94B208EC2F12
:1012C000F0E0EE0FFF1FEC55FF4FA591B4912C916C
:1012D0002D2381E090E021F480E002C080E090E0E6
:1012E000DF91CF910895089597FB072E16F400948F
:1012F00007D077FD09D00E94AA0907FC05D03EF46B
:10130000909581959F4F0895709561957F4F0895B1
:10131000A1E21A2EAA1BBB1BFD010DC0AA1FBB1FF9
:10132000EE1FFF1FA217B307E407F50720F0A21B6B
:10133000B30BE40BF50B661F771F881F991F1A94D8
:1013400069F760957095809590959B01AC01BD0102
:10135000CF010895AA1BBB1B51E107C0AA1FBB1FE9
:10136000A617B70710F0A61BB70B881F991F5A9531
:10137000A9F780959095BC01CD010895EE0FFF1F50
:101380000590F491E02D0994CF93DF93823091057D
:1013900010F482E090E0E091F302F091F40220E09A
:1013A00030E0A0E0B0E0309739F14081518148173A
:1013B0005907B8F04817590771F482819381109743
:1013C00029F013969C938E9312972CC09093F4025D
:1013D0008093F30227C02115310531F042175307DE
:1013E00018F0A901DB0101C0EF019A01BD01DF0185
:1013F0000280F381E02DD7CF21153105F9F0281BAC
:10140000390B2430310580F48A819B816115710587
:1014100021F0FB019383828304C09093F4028093B4
:10142000F302FE01329644C0FE01E20FF31F8193E6
:10143000919322503109398328833AC02091F102D7
:101440003091F202232B41F42091020130910301EB
:101450003093F2022093F1022091000130910101BA
:101460002115310541F42DB73EB74091040150914B
:101470000501241B350BE091F102F091F202E21715
:10148000F307A0F42E1B3F0B2817390778F0AC01A7
:101490004E5F5F4F2417350748F04E0F5F1F509384
:1014A000F2024093F1028193919302C0E0E0F0E0F8
:1014B000CF01DF91CF910895CF93DF93009709F487
:1014C00087C0FC01329713821282C091F302D0913F
:1014D000F402209781F420813181280F391F8091F7
:1014E000F1029091F2028217930779F5F093F202DC
:1014F000E093F1026DC0DE0120E030E0AE17BF07DF
:1015000050F412964D915C9113979D014115510530
:1015100009F1DA01F3CFB383A28340815181840FB3
:10152000951F8A179B0771F48D919C911197840FD9
:10153000951F02969183808312968D919C911397AB
:10154000938382832115310529F4F093F402E0930B
:10155000F3023EC0D9011396FC93EE9312974D917E
:101560005D91A40FB51FEA17FB0779F48081918183
:10157000840F951F0296D90111969C938E938281B8
:10158000938113969C938E931297E0E0F0E08A810A
:101590009B81009719F0FE01EC01F9CFCE01029674
:1015A00028813981820F931F2091F1023091F2023C
:1015B0002817390769F4309729F41092F402109231
:1015C000F30202C013821282D093F202C093F1029E
:1015D000DF91CF910895A0E0B0E0E1EFFAE00C9444
:1015E000E00BEC01CB01209719F40E94C409B8C0AC
:1015F000FE01E60FF71F9E0122503109E217F307A3
:1016000008F4ACC0D9010D911C911197061717076A
:10161000B8F00530110508F49FC0A80144505109E5
:101620004617570708F498C002501109061B170BFC
:10163000019311936D937C93CF010E945C0A8CC03F
:101640005B01A01AB10A4E01800E911EA091F30217
:10165000B091F402612C712C60E070E0109709F4F5
:1016600049C0A815B905C9F5ED90FC90119767011F
:1016700042E0C40ED11CCA14DB0478F147018A1879
:101680009B08640142E0C40ED11C1296BC901297D4
:101690001396AC91B5E0CB16D10440F0B282A3838F
:1016A00091828082D9018D939C9309C00E5F1F4F58
:1016B0000E0D1F1DF90111830083EB2DFA2F61150B
:1016C000710531F0DB011396FC93EE93129744C041
:1016D000F093F402E093F3023FC06D917C91119777
:1016E0006616770608F43B01BD0112960D90BC9179
:1016F000A02DB4CF6091F1027091F20268157905C6
:10170000E9F468167906D0F4409100015091010186
:101710004115510541F44DB75EB7609104017091D8
:101720000501461B570BE417F507C0F4F093F202CE
:10173000E093F102F901918380830EC00E94C409F5
:101740007C01009759F0A801BE010E94B50BCE01A3
:101750000E945C0AC70104C0CE0102C080E090E094
:10176000CDB7DEB7EEE00C94FC0BFB01DC0102C050
:1017700001900D9241505040D8F70895FB01DC01D3
:101780008D91019080190110D9F3990B0895FB01F7
:10179000DC0101900D920020E1F70895FB01DC01CE
:1017A0004150504030F08D910190801919F4002083
:1017B000B9F7881B990B08952F923F924F925F9231
:1017C0006F927F928F929F92AF92BF92CF92DF9251
:1017D000EF92FF920F931F93CF93DF93CDB7DEB7B6
:1017E000CA1BDB0B0FB6F894DEBF0FBECDBF09944A
:1017F0002A88398848885F846E847D848C849B84A1
:10180000AA84B984C884DF80EE80FD800C811B81AE
:10181000AA81B981CE0FD11D0FB6F894DEBF0FBEDD
:10182000CDBFED01089510E0C6ECD0E004C0FE018C
:101830000E94C0092296C83CD107C9F7F894FFCF8F
:101840000000F50280000000FF00FF0002000D0014
:1018500008005461726A657461204C6569646100B6
:101860005461726A65746120456E766961646100D5
:101870007375636365737300537563636573732175
:1018800021004661696C65642E2E00506C616361B5
:101890002070726570617261646120706172612094
:1018A0006C6565722100000000006F05EB06F10415
:1018B0000A05FC044D050D0A006E616E00696E6636
:0618C000006F76660000D7
:00000001FF
